:0C093500120941759008120941759004E8
:10094100E4FFFE758901758CF8758ACCD28C308DE7
:10095100FDC28CC28D0FBF00010EBE01E6BFF4E3E4
:010961002273
:03000B0002096E79
:07096E00758CF8758ACC328C
:10080000E4FDFCD2AFD2A9ED64024C6055759001B5
:1008100012094175900212093B7590081209417541
:1008200090101209417590201209417590401209EB
:100830004175908012094175908012094175904070
:1008400012094175902012094175901012093575F1
:1008500090021209417590011209410DBD00010C71
:1008600080A5E4FCFD1209417590181209417590AC
:100870002412094175904212094175908112094173
:1008800075908112094175904212094175902412A8
:1008900009417590181209410DBD00010CED64026B
:1008A0004C70C2E4FCFD12094175901812094175A3
:1008B000903C12094175907E1209417590FF120912
:1008C00041E4F5901209417590811209417590C378
:1008D0001209417590E71209417590FF1209410D07
:1008E000BD00010CED64024C70BC120941759020F2
:1008F00012094175900112093B75908012093B75F0
:100900009002120941759010120941759040120928
:10091000417590801209357590011209417590104A
:10092000120941759080120941759020120941E425
:05093000FCFD020807B8
:0300000002096290
:0C096200787FE4F6D8FD758107020800DC
:00000001FF
